:020000040800F2
:1000000030070020C50000085D1700086B0E0008CF
:1000100000000000000000000000000000000000E0
:10002000000000000000000000000000A71700080A
:100030000000000000000000A5170008A917000834
:10004000D700000800000000D7000008D700000813
:10005000D7000008D7000008D7000008D700000824
:1000600000000000D7000008D7000008D7000008F3
:10007000D7000008D7000008D700000800000000E3
:10008000D70000080000000000000000D7000008B2
:1000900000000000D7000008D70000086D0E00081F
:1000A00000000000D700000800000000D700000892
:1000B0000348854600F04AF800480047351A000812
:1000C000300700200448804704480047FEE7FEE769
:1000D000FEE7FEE7FEE7FEE711180008B1000008A2
:1000E00030B50B46014600202022012409E00D46D0
:1000F000D5409D4205D31D469540491B2546954058
:1001000040191546521E002DF1DC30BDD2B201E07F
:100110000270401C491EFBD270470022F6E710B562
:1001200013460A4604461946FFF7F0FF204610BD65
:1001300010B54843044601F0D7FC002805D0002143
:10014000002C02D0641E0155FAE710BD064C0125B3
:10015000064E05E0E36807CC2B430C3C984710346F
:10016000B442F7D3FFF7A8FF6C1C00088C1C0008F2
:10017000704700B585B014216846FFF7CEFF012116
:100180000020029000910191039109206946C00668
:1001900000F026F805B000BD70B5002401462031FE
:1001A0004A78022A03D004218163012416E0026800
:1001B00013680E25AB431360026813685B085B008D
:1001C00013600122056C1346AB40C56B6B604A702F
:1001D00000220A70416B002900D08847204670BD7C
:1001E000F8B500238DE001249C40A44622407DD038
:1001F0004C68022C01D0122C0CD1DC08A40027186A
:100200003C6A5D07ED0E0F26AE40B4430E69AE406A
:1002100026433E6205685E000324B4400F79A5437F
:10022000BF07BF0FB7402F4307604D68012D05D0B2
:10023000022D03D0112D01D0122D0ED18568CF686B
:10024000A543B7402F43876047686546AF430D79A4
:10025000ED06ED0F9D403D434560C568A5438C68A4
:10026000B4402C43C4604C68E40049D5284CA569CF
:1002700001263543A561A4699D0834400094254CAE
:10028000AD002F19BC689D072E0F0F25B540AC435C
:100290000925ED06A84201D100250FE01E4DA84218
:1002A00001D101250AE01D4DA84201D1022505E03A
:1002B0001B4DA84201D1032500E00525B54025438B
:1002C000BD60184C25684E689543F60300D515436C
:1002D000256065684E689543B60300D51543656093
:1002E000A5684E689543F60202D500E008E0154384
:1002F000A560E5684E689543B60200D51543E560F4
:100300005B1C0A681446DC4000D06CE7F8BD0000B6
:1003100000100240000001400004004800080048AE
:10032000000C004800040140002A01D081617047A0
:100330008162704701480068704700000400002097
:1003400070B5024640325378202B1CD11378012B14
:1003500019D00123137024245470046825689D4328
:100360002560046825681E03B54325600468256878
:100370000D4325600068016819430160202050701A
:100380000020107070BD022070BD70B50246403272
:100390005378202B1BD11378012B18D00124147013
:1003A0002423537003681D68A5431D6005682B68EE
:1003B0000F263602B3430902194329600068016819
:1003C00021430160202050700020107070BD022079
:1003D00070BD704770B50D46114904460068096844
:1003E000884215D1202141200155284601F0DFFA2D
:1003F000002D0ED00B4D6A880B49204600F076F98F
:100400000120287021680820C861054800F042F8E2
:1004100070BD054932223239204600F03BF9F1E740
:100420004000002014000020FE00002070B503688A
:100430009A691968D40507D50C0605D5446C0125C1
:100440002C4344642C02DC61530508D50B0606D509
:10045000436C082423434364E3010468E361920589
:1004600008D5090606D5416C0222114341641102E8
:100470000268D161416C0B22114202D0416C00F044
:10048000E3FD70BD026891691268436B002B00D0D8
:100490001847704710B5014640314A78202A01D0EC
:1004A000022010BD28224A7003494163042100F054
:1004B00033FD002010BD00007114000810B5074C7A
:1004C00000682168884208D12046FFF7E3FF2068D2
:1004D00041680122D2031143416010BD4000002059
:1004E00070B5040006D025464035687800260028FF
:1004F00002D005E0012070BD2E70204600F06CF89F
:1005000024206870206801684908490001600F21B3
:100510006068090688432168086121688A680120AB
:10052000C00382438A60E1680129A16808D02122C2
:100530009202114322689160E168022902D005E02D
:100540000143F7E701212268C902516021684A6826
:100550000F4B1A434A602168CA688243CA606169C6
:1005600020690843A169090208432168C860216A1B
:10057000E06908432168086020680168012211438E
:1005800001606664202068702663AE70002070BD34
:100590000080000210B50B4A0168126891420FD129
:1005A000094C2178012906D0008D3221081A81B228
:1005B000064801F0FDF9002020700248FFF76AFFAD
:1005C00010BD00004000002014000020CC000020DE
:1005D000704770477047704710B586B004461421C5
:1005E0006846FFF79AFD17492068884228D1164CC3
:1005F0006169012040040143616161690140032098
:1006000005914002009012200190012002900320E9
:1006100003900420049009206946C006FFF7E0FD1E
:10062000E169012040050143E161E16900220140E7
:1006300005911146172000F0CDF8172000F0C0F802
:1006400006B010BD005400400010024010B506492D
:1006500000680968884206D13221044801F0A8F9EF
:100660000148FFF717FF10BD40000020CC0000201C
:1006700010B5064900680968884205D10449002080
:1006800008700248FFF706FF10BD00004000002080
:1006900014000020F8B5034640335C78202C1ED1AE
:1006A0001C78012C1BD001241C7022245C70202497
:1006B0009C700024446405686E680127FF03BE43F4
:1006C0006E6041624285418D01850649C1620649DD
:1006D00041631C70062100F01FFC0020F8BD0220C1
:1006E000F8BD00000000FFFF71140008F8B50346D4
:1006F00040335C78202C1ED11C78012C1BD00124A7
:100700001C7021245C7020249C70002444640568C3
:100710006E680127FF03BE436E6041624285418DD2
:1007200001850649C162064941631C70052100F03C
:10073000F3FB0020F8BD0220F8BD00000000FFFF21
:100740007114000802480168491C016070470000EC
:100750000400002010B50648016810221143016012
:10076000002000F007F800F017F8002010BD00008E
:100770000020024010B5044600F03AF97D21C9007E
:10078000FFF7AEFC00F020FB00222146501E00F0D7
:1007900021F8002010BD000008B508488169012239
:1007A00011438161816911400091C26901040A43CA
:1007B000C261C0690840009008BD000000100240FE
:1007C000C106C90E01208840014908607047000039
:1007D00000E100E010B500F0C3FF10BDF8B505461C
:1007E0000068354CC00352D5E0690026C00007D42C
:1007F000E16920040143E161E169014001260091C2
:100800002E480168C90510D40168821511430160A2
:10081000FFF790FD074604E0FFF78CFDC01B64283E
:1008200024D826480068C005F6D5206A03273F0271
:10083000384020D06968394081421CD0206A226A41
:10084000B843012109040A432262226A8A432262D0
:100850002062C0070FD0FFF76DFD009008E0FFF7A2
:1008600069FD0099411A1648814201D90320F8BD5B
:10087000206A8007F3D5206A6968B843084320627C
:10088000002E04D0E169012000078143E16128784E
:10089000C00705D0206BA96880088000084320634A
:1008A0002878800605D5206B10218843E968084325
:1008B00020630020F8BD00000010024000700040DE
:1008C00088130000F8B5054644480E460068C00786
:1008D000C00FB0420AD2414801684908490031437B
:1008E00001600068C007C00FB0425CD128783C4C62
:1008F000800705D56068F0218843A96808436060D7
:100900002878C0073FD06868012813D021680228E2
:1009100013D08907002946DA6168890889000143F4
:100920006160FFF707FD6968074601290DD00229BC
:1009300017D024E021688903ECE78901EAE7FFF793
:10094000F9FCC11B2748814217D860680007800F57
:100950000128F4D117E0FFF7EDFCC11B21488142CB
:100960000BD860680007800F0228F4D10BE0FFF776
:10097000E1FCC11B1B48814201D90320F8BD60681E
:100980000007800FF3D115480168C907C90FB142AC
:100990000BD9016849084900314301600068C0076C
:1009A000C00FB04201D00120F8BD2878400706D51D
:1009B0006068072109028843E9680843606000F025
:1009C0001DF86168084A0906090F515CC8400749CB
:1009D00008600020FFF7CEFE0020F8BD0020024096
:1009E00000100240881300005C1C00080800002072
:1009F00001480068704700000800002010B512A3ED
:100A00000FCB88B06C460FC413A30FCB0FC416498D
:100A10004A680C20134603401448042B0FD0082BBF
:100A20000DD193021B0F6C46E45CC96A04AB090745
:100A3000090F595CD20304D5FFF752FB604308B09D
:100A400010BD0B486043FAE70203040506070809D6
:100A50000A0B0C0D0E0F1010010203040506070807
:100A6000090A0B0C0D0E0F100010024000127A0044
:100A700000093D00FEB504460078D04DC00747D0C0
:100A800068680007800F012807D068680007800F9A
:100A9000022809D16868C00306D52868800337D5C5
:100AA000606800287ED033E0012062680004012ADB
:100AB00011D08100002A01D0052A10D02A68824373
:100AC0002A602868884328606068002814D0FFF7EF
:100AD00031FC06460CE0296801432960F4E72A68E6
:100AE0000A432A60F7E7FFF725FC801B64286FD8CC
:100AF00028688003F7D50BE0FFF71CFC064604E0EE
:100B0000FFF718FC801B6428F1D828688003F7D40D
:100B100020780126800700283BDA68680007800FEC
:100B200007D068680007800F022809D16868C003F1
:100B300006D42868800715D5E068012832D111E075
:100B4000E0680028286815D030432860FFF7F2FBE2
:100B5000074604E0FFF7EEFBC01B0228C7D8286851
:100B60008007F7D52868F82188432169C900084320
:100B700028600EE0400840002860FFF7DBFB0746D6
:100B800004E0FFF7D7FBC01B0228B0D82868800715
:100B9000F7D42078000724D5E0690028686A10D0CF
:100BA000304300E008E16862FFF7C4FB074604E059
:100BB000FFF7C0FBC01B022899D8686A8007F7D5E9
:100BC0000FE0400840006862FFF7B4FB074605E00D
:100BD0009DE0FFF7AFFBC01B022888D8686A80073A
:100BE000F7D4207804274007002860DA002001901D
:100BF000E869C00008D4E969B8060143E961E96918
:100C000001400120009101906D480168C90511D48F
:100C10000168821511430160FFF78CFB009005E02D
:100C2000FFF788FB0099401A642870D86448006870
:100C3000C005F5D5A06801280AD0002801D00528F4
:100C400010D0286A400840002862286AB84301E0B2
:100C5000286A30432862A068002812D0FFF76AFB98
:100C600000900AE0286A38432862F1E7FFF762FB48
:100C70000099411A5348814249D8286A8007F5D51E
:100C80000DE0FFF757FB009006E0FFF753FB0099DC
:100C9000411A4C4881423AD8286A8007F5D4019815
:100CA000002804D0E969012000078143E961207828
:100CB000C00635D5606901280CD0401D686B23D073
:100CC00038436863686B400840006863FFF732FB95
:100CD000064622E0686B38436863686B304368639C
:100CE000FFF728FB064604E0FFF724FB801B0228E1
:100CF0005BD8686B8007F7D5686BF8218843A169DA
:100D0000C900084368630BE0B8436863F4E74CE04C
:100D1000FFF710FB801B022847D8686B8007F7D4C9
:100D2000206A002846D069680907890F022943D044
:100D3000012636060228286805D0B0432860FFF750
:100D4000F9FA044633E0B0432860FFF7F3FA0746A8
:100D500004E0FFF7EFFAC01B022826D828688001BC
:100D6000F7D4E86AE16A000900010843E862616AB1
:100D7000A06A084369683D221204914308436860F1
:100D8000286830432860FFF7D5FA044604E0FFF7EF
:100D9000D1FA001B022808D828688001F7D509E09D
:100DA000FFF7C8FA001B022801D90320FEBD2868FE
:100DB0008001F5D40020FEBD0120FEBD00100240E0
:100DC0000070004088130000094910B5401E884299
:100DD00001D9012010BD074C60610321081F00F0FC
:100DE000BFFC0020A06107202061002010BD000092
:100DF000FFFFFF0000E000E070B5040005D02546CD
:100E00002035687F002802D006E0012070BD002058
:100E10002877204600F00AF802206877211D206814
:100E200000F024FD01206877002070BD08B500683F
:100E30000649884208D106488269012149040A43CB
:100E4000826180690840009008BD000000440140B4
:100E5000001002400268D36801210B43D360006890
:100E600002680A43026000207047FEE710B506489A
:100E7000006880694005400F034802D0FFF7D6FAAA
:100E800010BDFFF7FFFA10BD4000002010B5406A0A
:100E900001684A680123DB031A434A60826B002120
:100EA0005163C26B5163014640314A78602A02D0D7
:100EB000FFF704FB10BD20224A70FFF78AFA10BD2D
:100EC000F0B503460022CE0740332824B025002E7B
:100ED00005D05E7842222746B74300D0F2228E0723
:100EE00005D544265B7832439C4300D02A434B0708
:100EF00001D5B8231A4311238B4301D190231A4300
:100F000012238B4301D160210A4300680168914399
:100F100001600020F0BD000070B5164D1223446B37
:100F2000002220268B43AC4202D0134DAC420DD19F
:100F30004C0700D5B82211248C4301D190210A43DB
:100F4000002B11D1324340210A430DE04C0700D55C
:100F5000B822CC0701D0F2242243890701D5F4211D
:100F60000A43002B00D1324300680168114301603D
:100F7000002070BD471300080914000801688A6941
:100F8000D243920701D400228A6200688169C94372
:100F9000C90703D081690122114381617047F8B507
:100FA0000546044640356878282282430026FE2103
:100FB0002068002A06D06A78222A30D00821C16130
:100FC0002E70F8BD8269D203D20F00928269170C8D
:100FD00082680F409205C368920D0B40E1689C4601
:100FE000022915D10621D3090F400B409F420ED193
:100FF000A16C491CA164A16C0229E2D1A66408215C
:10100000C1612E7000992046FFF7E4F9F8BD6746EC
:1010100004212046FFF754FF2E703A46F2E782691A
:101020008069D203D70F000C0840009007212046AA
:10103000FFF746FF21681020C8612E702046FFF799
:10104000A9FA3946009ADEE7F8B50026054640358C
:101050000446AE702C48E0626685606C08436064AC
:1010600068782027282823D06878292820D0687815
:101070002A281DD007212046FFF722FF6878602824
:1010800000D06F7026636663206801684A041F49B8
:10109000026817D501239B039A430260A06B41634A
:1010A0002E70A06BFFF778F800281DD0A06B19E018
:1010B00003212046FFF704FF2820687026631448A8
:1010C0006063E1E7120410D502680123DB039A4351
:1010D0000260E06B41632E70E06BFFF75DF8002863
:1010E00002D0E06B416B8847F8BD6878602804D077
:1010F0002E702046FFF7E2F9F8BD6F702E70204683
:10110000FFF767F9F8BD00000000FFFF8D0E000833
:101110007114000870B504461548E0620025256387
:101120002046403006468570202070706563480771
:1011300011D52068416A606A421C62620170208D8C
:10114000002808D0401E2085608D401E6085606CA0
:1011500004210843606407212046FFF7B1FE21689F
:101160001020C86135702046FFF714FA70BD0000EA
:101170000000FFFFF8B5064600682027C761306809
:101180004268224B1A40426000253563204875634F
:10119000F062C80606D531681020C861706C042161
:1011A000084370643046FFF7E9FE03213046FFF73D
:1011B00087FE706C002814D1344640346078602873
:1011C0000FD06078212811D06078222808D167706C
:1011D000A078A57040282570304614D0FFF7F8F9A4
:1011E000F8BD716C3046FFF72FFFF8BD6770A0782F
:1011F000A57040282570304602D0FFF7EAF9F8BD07
:10120000FFF7E9F9F8BDFFF7E5F9F8BD00E800FEE2
:101210000000FFFFF8B50446006820260F46C661AF
:1012200021680820C86107212046FFF749FE206891
:101230004168B20211434160206841682D4A114063
:1012400041602046FFF79AFE206801682546490460
:101250004035002902DB0168090406D56978212997
:101260002FD0E16B096849686185628D0421002AED
:1012700002D0626C0A4362647A070FD5426A606AE0
:10128000431C63620270208D002807D0401E208519
:10129000608D401E6085606C0843606400202063A0
:1012A000A8706063616C00290DD0616C2046FFF767
:1012B000CBFE6878282803D139462046FFF72AFF5D
:1012C000F8BDA16BCEE7E26A0B498A4206D0E16223
:1012D0006E7028702046FFF75DF9F8BD69786E7072
:1012E00022292870204602D0FFF7C2F9F8BDFFF787
:1012F000ADF9F8BD00E800FE0000FFFF70B5002664
:10130000044640340546A6706178282029290ED06D
:1013100061782A290AD16070222028630221284698
:10132000FFF7CEFD26702846FFF790F970BD60707C
:101330002120286301212846FFF7C2FD2670284698
:10134000FFF796F970BDF8B5054604464035287894
:10135000012816D001202870C8060026002812DABD
:10136000D00610D521681020C861606C04210843A4
:10137000606412212046FFF7CFFD2046FFF7FEFDF7
:101380003FE00220F8BD080634D5500632D520686B
:101390000168402291430160608D002825D02068BB
:1013A00040688105608D890DFF2803D9FF202085C5
:1013B000930403E0608D012320855B060096208D59
:1013C000C2B2204600F0E4F8608D218D401A60859D
:1013D000687822282068016804D001229203114312
:1013E00001600EE00122D203F9E740212046FFF719
:1013F0002BFE06E0880604D5900602D52046FFF7AE
:10140000B9FE2E700020F8BD10B504464034237894
:10141000012B15D001232370CB0618D5D30616D582
:10142000617821290ED0C16B096849681022002912
:101430000AD00168CA61416C04221143416414E07E
:10144000022010BD816BEFE70068C2610DE00B0761
:1014500005D5130703D500680821C16105E08B0697
:1014600003D5920601D5FFF7D5FE0020207010BDF0
:10147000F8B5054604464035287816460F4601283B
:1014800011D0012028704149F8062DD5F0062BD542
:10149000628D1020002A08D02168C861606C042188
:1014A0000843606467E00220F8BDE36A0122520647
:1014B000934202D0E36A934202D16A78282A08D084
:1014C000E26A8A4202D06978292907D02168C86176
:1014D00051E039462046FFF71DFE4CE02168C86107
:1014E0002046FFF74BFD43E0780719D5700717D565
:1014F000608D002820680BD0426A606A431C6362DA
:101500000270208D401E2085608D401E608500E0A9
:10151000406A608D00282ED1E06A884228D12AE0F6
:10152000380706D5300704D539462046FFF737FD82
:1015300021E0B8071FD5B0071DD5608D00280CD05D
:10154000606A411C6162216800788862608D401E7B
:101550006085208D401E20850DE02168FF20886277
:10156000E06A01210906884202D0E06A002802D11F
:101570002046FFF7C3FEB80605D5B00603D53946A9
:101580002046FFF747FE00202870F8BD0000FFFF4F
:1015900070B50568049C68688905890D1204044EBD
:1015A00011431943304021430143696070BD00007D
:1015B000009800FCF0B587B014216846FEF7ADFD39
:1015C00017484269012149040A43426142690A40BD
:1015D0000592426949000A4342614069092708406F
:1015E000FF0605900022FE213846FEF79DFE0022F0
:1015F00002210C48FEF798FEFE2001240025032658
:101600006A4671C269463846FEF7EAFD02206A461C
:1016100071C269460348FEF7E3FD07B0F0BD000064
:10162000001002400004004810B51448124901603F
:1016300013494160702181600121C1600021016175
:1016400041618161C1610162FEF74AFF002801D05A
:10165000FEF78EFD00210948FEF772FE002801D03A
:10166000FEF786FD00210548FEF78FFE002801D019
:10167000FEF77EFD10BD0000005400404000002039
:101680000E09002010B50B4809490160FF21E03127
:101690004160002181600161074A4161C26081614E
:1016A000FFF7AAFB002801D0FEF762FD10BD000085
:1016B000004401408C000020FFFF0000F0B54942CB
:1016C0004CB2254A0921C5000223224FC906102623
:1016D000AD18002C1BDBAC7100280AD001280BD000
:1016E00002280ED0032811D1402088620420916185
:1016F0001BE0BB6211601DE02020886280209160A9
:101700001EE08E621161144908208882F0BD644297
:10171000AC7100280CD001280ED0022813D0032869
:10172000F4D104208862402091610B498883F0BD88
:101730008B6217609380F0BD8020886220209160CA
:1017400005498881F0BD08208862034811618682BE
:10175000F0BD000000040048200000207047000099
:101760008307FF22DB0E9A408907090E9940002863
:101770000BDA0007000F0838830808489B00181888
:10178000C36993430B43C3617047830804489B00BC
:101790001B181868904308431860704700ED00E07C
:1017A00000E400E07047704710B5FEF7CBFF10BDB6
:1017B00030B595B030216846FEF7AFFC00240D949B
:1017C000129401200E940390139410200994022582
:1017D00004900F9405200095C0040C9410940A9076
:1017E000119408950B946846FFF744F907200C9074
:1017F0000E9401210D950F940CA8FFF763F820209B
:101800001090139410A8FEF7E9FF15B030BD00004A
:10181000134801680122114301604168114A1140D7
:1018200041600168104A1140016001680122920480
:101830009143016041683F22120491434160C16AB3
:1018400009090901C162016BFF221432914301634E
:10185000416B4908490041630021816070470000E5
:10186000001002400CB8FF08FFFFF6FE70B50268DA
:10187000174B184E984201D0B04203D17024A243B6
:101880004C682243144C154D984208D0B04206D003
:10189000134EB04203D0A04201D0A84204D1032687
:1018A0003602B243CE6832438026B2434E69324399
:1018B00002608A68C2620A688262984203D0A042CB
:1018C00001D0A84201D1096901630121416170BDC4
:1018D000002C014000040040004401400048014049
:1018E0000020004002E008C8121F08C1002AFAD1F7
:1018F00070477047002001E001C1121F002AFBD190
:10190000704770B50022172501210923DB06AE1AA6
:101910000C46B4400442996119D000BF00BF00BF1B
:1019200000BF00BF00BF00BF00BF00BF00BF00BFBF
:1019300000BF00BF00BF00BF00BF00BF00BF00BFAF
:1019400000BF00BF00BF00BF00BF996212E000BF30
:1019500000BF00BF00BF00BF00BF00BF00BF00BF8F
:10196000996200BF00BF00BF00BF00BF00BF00BF43
:1019700000BF00BF00BF00BF00BF00BF00BF00BF6F
:1019800000BF00BF00BF00BF00BF00BF00BF00BF5F
:1019900000BF00BF00BF00BF00BF00BF00BF00BF4F
:1019A00000BF00BF521CD2B2182AB0D370BD70471E
:1019B000F8B505461E4C00782070012917D9491E3C
:1019C00020788FB2000913D12078042810D226780D
:1019D00009E020780121301A401941563046FFF7BE
:1019E0006DFE761CF6B22078C019B042F1D8F8BD71
:1019F000207800090128FAD120781428F7D26878D5
:101A0000012809D9E878A97800040902084329794E
:101A1000084300F09FF808E0E978AA780904120268
:101A200011432A79114300F0A5F800F0ABF8F8BD96
:101A300000000020FEF78EFEFFF7BAFEFFF7BAFDAA
:101A4000FFF7F2FDFFF71EFE2248FEF723FD2248B6
:101A5000FFF700FA2148224C06C806C44268016814
:101A600062602160C1688068E160A0601B491C4A17
:101A70008869C969D16190610220083C00F0B2F820
:101A800018490027486A642810D34F6200200126B5
:101A9000C3001A199579002D03D0E35895889D61EC
:101AA000D671401CC0B20428F2D3EBE700204D6A87
:101AB000C3001A199679B54206D3D579002D03D003
:101AC000E35895889D62D771401CC0B20428EED3BC
:101AD000D8E70000400000208C0000203C1C0008DB
:101AE0002000002000440140F0B50B30C108C900BF
:101AF000144F0026144A0FE003688B420BD38B422D
:101B000005D95C1A4318456830C3083B00E04368B8
:101B1000136002C004E0021D10680028ECD13046BA
:101B2000002803D13868002801D00020F0BD064A03
:101B300006481060064A121AD208D20044C001209A
:101B40003860D7E71C000020180000203401002076
:101B50003003002010B5064A00215368127803E0D4
:101B60008C00491C1851C9B29142F9D310BD000034
:101B70000C000020024A800052681150704700009B
:101B80000C00002030B572B60024154D06E06968DF
:101B9000A0000858FFF7B5FE641CE4B22878844220
:101BA000F5D362B6002000BF00BF00BF00BF00BF7A
:101BB00000BF00BF00BF00BF00BF00BF00BF00BF2D
:101BC00000BF00BF00BF00BF00BF00BF00BF00BF1D
:101BD00000BF00BF00BF401CC0B28528E3D330BDAA
:101BE0000C00002010B50446FEF7C3FA002100BF28
:101BF00000BF00BF00BF00BF00BF00BF00BF00BFED
:101C000000BF00BF00BF00BF00BF00BF00BF00BFDC
:101C100000BF00BF00BF00BF00BF00BF00BF491C26
:101C2000C9B28529E3D304212046FEF781FA014693
:101C300001484160047010BD0C0000200004004801
:101C40000200000100000048800000010000004880
:101C500010000001000000484000000100000000EA
:101C60000000000001020304060708098C1C00089C
:101C70000000002020000000E4180008AC1C000850
:101C80002000002010070000F418000800000000E9
:101C90000000000000127A000000000000000000B8
:0C1CA00000000000000000000000000038
:04000005080000B13E
:00000001FF
